{
  "contractName": "CasaLeilao",
  "abi": [
    {
      "constant": false,
      "inputs": [],
      "name": "renounceWhitelistAdmin",
      "outputs": [],
      "payable": false,
      "stateMutability": "nonpayable",
      "type": "function",
      "signature": "0x4c5a628c"
    },
    {
      "constant": false,
      "inputs": [
        {
          "name": "account",
          "type": "address"
        }
      ],
      "name": "addWhitelistAdmin",
      "outputs": [],
      "payable": false,
      "stateMutability": "nonpayable",
      "type": "function",
      "signature": "0x7362d9c8"
    },
    {
      "constant": true,
      "inputs": [
        {
          "name": "account",
          "type": "address"
        }
      ],
      "name": "isWhitelistAdmin",
      "outputs": [
        {
          "name": "",
          "type": "bool"
        }
      ],
      "payable": false,
      "stateMutability": "view",
      "type": "function",
      "signature": "0xbb5f747b"
    },
    {
      "inputs": [
        {
          "name": "_fiapTokenAddress",
          "type": "address"
        }
      ],
      "payable": false,
      "stateMutability": "nonpayable",
      "type": "constructor",
      "signature": "constructor"
    },
    {
      "anonymous": false,
      "inputs": [
        {
          "indexed": false,
          "name": "_id",
          "type": "uint24"
        },
        {
          "indexed": false,
          "name": "_donoDoLance",
          "type": "address"
        },
        {
          "indexed": false,
          "name": "_lance",
          "type": "uint24"
        }
      ],
      "name": "Lance",
      "type": "event",
      "signature": "0x6efe4755afc5fb215182c149881b71cbd37a4dbc7742b32c330aad727fe163ea"
    },
    {
      "anonymous": false,
      "inputs": [
        {
          "indexed": false,
          "name": "_id",
          "type": "uint24"
        },
        {
          "indexed": false,
          "name": "_nome",
          "type": "string"
        },
        {
          "indexed": false,
          "name": "_ganhador",
          "type": "address"
        },
        {
          "indexed": false,
          "name": "_nomeGanhador",
          "type": "string"
        },
        {
          "indexed": false,
          "name": "_lance",
          "type": "uint24"
        }
      ],
      "name": "FimDeLeilao",
      "type": "event",
      "signature": "0xff667a22e8015f773a5a67b61461bb4b834834b9dfe8ab4e0681d8694dd38416"
    },
    {
      "anonymous": false,
      "inputs": [
        {
          "indexed": false,
          "name": "_id",
          "type": "uint24"
        },
        {
          "indexed": false,
          "name": "_nome",
          "type": "string"
        },
        {
          "indexed": false,
          "name": "_foto",
          "type": "string"
        }
      ],
      "name": "InicioDeLeilao",
      "type": "event",
      "signature": "0x4c8ed2f5c2b4a36bf4342b8d6544300ca5ca6272f42db59e168f3320e8f6380d"
    },
    {
      "anonymous": false,
      "inputs": [
        {
          "indexed": false,
          "name": "_carteira",
          "type": "address"
        },
        {
          "indexed": false,
          "name": "_nome",
          "type": "string"
        },
        {
          "indexed": false,
          "name": "_saldo",
          "type": "uint256"
        }
      ],
      "name": "Participante",
      "type": "event",
      "signature": "0x346f9327810a691d8ea29288f9974948206385e779bc8a9b70671c247826a479"
    },
    {
      "anonymous": false,
      "inputs": [
        {
          "indexed": true,
          "name": "account",
          "type": "address"
        }
      ],
      "name": "WhitelistAdminAdded",
      "type": "event",
      "signature": "0x22380c05984257a1cb900161c713dd71d39e74820f1aea43bd3f1bdd20961299"
    },
    {
      "anonymous": false,
      "inputs": [
        {
          "indexed": true,
          "name": "account",
          "type": "address"
        }
      ],
      "name": "WhitelistAdminRemoved",
      "type": "event",
      "signature": "0x0a8eb35e5ca14b3d6f28e4abf2f128dbab231a58b56e89beb5d636115001e165"
    },
    {
      "constant": false,
      "inputs": [
        {
          "name": "_leilaoId",
          "type": "uint24"
        },
        {
          "name": "_nome",
          "type": "string"
        },
        {
          "name": "_foto",
          "type": "string"
        }
      ],
      "name": "addLeilao",
      "outputs": [
        {
          "name": "_situacaoLeilao",
          "type": "bool"
        }
      ],
      "payable": false,
      "stateMutability": "nonpayable",
      "type": "function",
      "signature": "0x3844b448"
    },
    {
      "constant": false,
      "inputs": [
        {
          "name": "_leilaoId",
          "type": "uint24"
        }
      ],
      "name": "encerrarLeilao",
      "outputs": [
        {
          "name": "_situacaoLeilao",
          "type": "bool"
        }
      ],
      "payable": false,
      "stateMutability": "nonpayable",
      "type": "function",
      "signature": "0x1273af4b"
    },
    {
      "constant": false,
      "inputs": [
        {
          "name": "_nome",
          "type": "string"
        }
      ],
      "name": "addParticipante",
      "outputs": [
        {
          "name": "_situacao",
          "type": "bool"
        }
      ],
      "payable": false,
      "stateMutability": "nonpayable",
      "type": "function",
      "signature": "0xaa39065b"
    },
    {
      "constant": false,
      "inputs": [
        {
          "name": "_leilaoId",
          "type": "uint24"
        },
        {
          "name": "_valorLance",
          "type": "uint24"
        }
      ],
      "name": "darLance",
      "outputs": [
        {
          "name": "_situacaoLance",
          "type": "bool"
        }
      ],
      "payable": false,
      "stateMutability": "nonpayable",
      "type": "function",
      "signature": "0x165c9027"
    },
    {
      "constant": true,
      "inputs": [
        {
          "name": "_address",
          "type": "address"
        }
      ],
      "name": "getParticipante",
      "outputs": [
        {
          "name": "_nome",
          "type": "string"
        }
      ],
      "payable": false,
      "stateMutability": "view",
      "type": "function",
      "signature": "0x6f8b616c"
    },
    {
      "constant": true,
      "inputs": [
        {
          "name": "_leilaoId",
          "type": "uint24"
        }
      ],
      "name": "getSeuUltimoLance",
      "outputs": [
        {
          "name": "_ultimoLance",
          "type": "uint24"
        }
      ],
      "payable": false,
      "stateMutability": "view",
      "type": "function",
      "signature": "0x2a44b21a"
    },
    {
      "constant": true,
      "inputs": [
        {
          "name": "_leilaoId",
          "type": "uint24"
        }
      ],
      "name": "getLeilao",
      "outputs": [
        {
          "name": "_nome",
          "type": "string"
        },
        {
          "name": "_foto",
          "type": "string"
        },
        {
          "name": "_maiorLance",
          "type": "uint24"
        },
        {
          "name": "_ativo",
          "type": "bool"
        }
      ],
      "payable": false,
      "stateMutability": "view",
      "type": "function",
      "signature": "0x2464ba08"
    },
    {
      "constant": true,
      "inputs": [],
      "name": "getLeilaoAtivo",
      "outputs": [
        {
          "name": "",
          "type": "uint24"
        }
      ],
      "payable": false,
      "stateMutability": "view",
      "type": "function",
      "signature": "0xba21f281"
    }
  ],
  "bytecode": "0x60806040526000600160146101000a81548162ffffff021916908362ffffff1602179055503480156200003157600080fd5b5060405160208062002413833981018060405260208110156200005357600080fd5b81019080805190602001909291905050506200007e33620000c6640100000000026401000000009004565b80600160006101000a81548173ffffffffffffffffffffffffffffffffffffffff021916908373ffffffffffffffffffffffffffffffffffffffff1602179055505062000288565b620000ea816000620001306401000000000262001f7a179091906401000000009004565b8073ffffffffffffffffffffffffffffffffffffffff167f22380c05984257a1cb900161c713dd71d39e74820f1aea43bd3f1bdd2096129960405160405180910390a250565b600073ffffffffffffffffffffffffffffffffffffffff168173ffffffffffffffffffffffffffffffffffffffff16141515156200016d57600080fd5b620001888282620001f3640100000000026401000000009004565b1515156200019557600080fd5b60018260000160008373ffffffffffffffffffffffffffffffffffffffff1673ffffffffffffffffffffffffffffffffffffffff16815260200190815260200160002060006101000a81548160ff0219169083151502179055505050565b60008073ffffffffffffffffffffffffffffffffffffffff168273ffffffffffffffffffffffffffffffffffffffff16141515156200023157600080fd5b8260000160008373ffffffffffffffffffffffffffffffffffffffff1673ffffffffffffffffffffffffffffffffffffffff16815260200190815260200160002060009054906101000a900460ff16905092915050565b61217b80620002986000396000f3fe6080604052600436106100af576000357c0100000000000000000000000000000000000000000000000000000000900463ffffffff1680631273af4b146100b4578063165c90271461010c5780632464ba08146101735780632a44b21a146102b45780633844b448146103125780634c5a628c146104985780636f8b616c146104af5780637362d9c814610579578063aa39065b146105ca578063ba21f281146106aa578063bb5f747b146106df575b600080fd5b3480156100c057600080fd5b506100f2600480360360208110156100d757600080fd5b81019080803562ffffff169060200190929190505050610748565b604051808215151515815260200191505060405180910390f35b34801561011857600080fd5b506101596004803603604081101561012f57600080fd5b81019080803562ffffff169060200190929190803562ffffff169060200190929190505050610d2f565b604051808215151515815260200191505060405180910390f35b34801561017f57600080fd5b506101b16004803603602081101561019657600080fd5b81019080803562ffffff16906020019092919050505061134f565b6040518080602001806020018562ffffff1662ffffff16815260200184151515158152602001838103835287818151815260200191508051906020019080838360005b8381101561020f5780820151818401526020810190506101f4565b50505050905090810190601f16801561023c5780820380516001836020036101000a031916815260200191505b50838103825286818151815260200191508051906020019080838360005b8381101561027557808201518184015260208101905061025a565b50505050905090810190601f1680156102a25780820380516001836020036101000a031916815260200191505b50965050505050505060405180910390f35b3480156102c057600080fd5b506102f2600480360360208110156102d757600080fd5b81019080803562ffffff16906020019092919050505061153a565b604051808262ffffff1662ffffff16815260200191505060405180910390f35b34801561031e57600080fd5b5061047e6004803603606081101561033557600080fd5b81019080803562ffffff1690602001909291908035906020019064010000000081111561036157600080fd5b82018360208201111561037357600080fd5b8035906020019184600183028401116401000000008311171561039557600080fd5b91908080601f016020809104026020016040519081016040528093929190818152602001838380828437600081840152601f19601f820116905080830192505050505050509192919290803590602001906401000000008111156103f857600080fd5b82018360208201111561040a57600080fd5b8035906020019184600183028401116401000000008311171561042c57600080fd5b91908080601f016020809104026020016040519081016040528093929190818152602001838380828437600081840152601f19601f8201169050808301925050505050505091929192905050506115b0565b604051808215151515815260200191505060405180910390f35b3480156104a457600080fd5b506104ad611907565b005b3480156104bb57600080fd5b506104fe600480360360208110156104d257600080fd5b81019080803573ffffffffffffffffffffffffffffffffffffffff169060200190929190505050611912565b6040518080602001828103825283818151815260200191508051906020019080838360005b8381101561053e578082015181840152602081019050610523565b50505050905090810190601f16801561056b5780820380516001836020036101000a031916815260200191505b509250505060405180910390f35b34801561058557600080fd5b506105c86004803603602081101561059c57600080fd5b81019080803573ffffffffffffffffffffffffffffffffffffffff1690602001909291905050506119f3565b005b3480156105d657600080fd5b50610690600480360360208110156105ed57600080fd5b810190808035906020019064010000000081111561060a57600080fd5b82018360208201111561061c57600080fd5b8035906020019184600183028401116401000000008311171561063e57600080fd5b91908080601f016020809104026020016040519081016040528093929190818152602001838380828437600081840152601f19601f820116905080830192505050505050509192919290505050611a13565b604051808215151515815260200191505060405180910390f35b3480156106b657600080fd5b506106bf611d4d565b604051808262ffffff1662ffffff16815260200191505060405180910390f35b3480156106eb57600080fd5b5061072e6004803603602081101561070257600080fd5b81019080803573ffffffffffffffffffffffffffffffffffffffff169060200190929190505050611d66565b604051808215151515815260200191505060405180910390f35b600061075333611d66565b151561075e57600080fd5b60011515600360008462ffffff1662ffffff16815260200190815260200160002060030160189054906101000a900460ff1615151415610d255760011515600360008462ffffff1662ffffff16815260200190815260200160002060030160179054906101000a900460ff1615151415610d1c576000600360008462ffffff1662ffffff16815260200190815260200160002060030160176101000a81548160ff0219169083151502179055506000600160146101000a81548162ffffff021916908362ffffff16021790555060008090505b600280549050811015610a6b57600160009054906101000a900473ffffffffffffffffffffffffffffffffffffffff1673ffffffffffffffffffffffffffffffffffffffff166340c10f1960028381548110151561088b57fe5b9060005260206000200160009054906101000a900473ffffffffffffffffffffffffffffffffffffffff16600360008762ffffff1662ffffff16815260200190815260200160002060040160006002868154811015156108e757fe5b9060005260206000200160009054906101000a900473ffffffffffffffffffffffffffffffffffffffff1673ffffffffffffffffffffffffffffffffffffffff1673ffffffffffffffffffffffffffffffffffffffff16815260200190815260200160002060009054906101000a900462ffffff166040518363ffffffff167c0100000000000000000000000000000000000000000000000000000000028152600401808373ffffffffffffffffffffffffffffffffffffffff1673ffffffffffffffffffffffffffffffffffffffff1681526020018262ffffff16815260200192505050602060405180830381600087803b1580156109e657600080fd5b505af11580156109fa573d6000803e3d6000fd5b505050506040513d6020811015610a1057600080fd5b810190808051906020019092919050505050600281815481101515610a3157fe5b9060005260206000200160006101000a81549073ffffffffffffffffffffffffffffffffffffffff02191690558080600101915050610831565b507fff667a22e8015f773a5a67b61461bb4b834834b9dfe8ab4e0681d8694dd3841682600360008562ffffff1662ffffff168152602001908152602001600020600101600360008662ffffff1662ffffff16815260200190815260200160002060030160039054906101000a900473ffffffffffffffffffffffffffffffffffffffff1660046000600360008962ffffff1662ffffff16815260200190815260200160002060030160039054906101000a900473ffffffffffffffffffffffffffffffffffffffff1673ffffffffffffffffffffffffffffffffffffffff1673ffffffffffffffffffffffffffffffffffffffff168152602001908152602001600020600360008862ffffff1662ffffff16815260200190815260200160002060030160009054906101000a900462ffffff16604051808662ffffff1662ffffff168152602001806020018573ffffffffffffffffffffffffffffffffffffffff1673ffffffffffffffffffffffffffffffffffffffff168152602001806020018462ffffff1662ffffff168152602001838103835287818154600181600116156101000203166002900481526020019150805460018160011615610100020316600290048015610c7d5780601f10610c5257610100808354040283529160200191610c7d565b820191906000526020600020905b815481529060010190602001808311610c6057829003601f168201915b5050838103825285818154600181600116156101000203166002900481526020019150805460018160011615610100020316600290048015610d005780601f10610cd557610100808354040283529160200191610d00565b820191906000526020600020905b815481529060010190602001808311610ce357829003601f168201915b505097505050505050505060405180910390a160019050610d2a565b60009050610d2a565b600090505b919050565b600060011515600360008562ffffff1662ffffff16815260200190815260200160002060030160179054906101000a900460ff161515148015610daa5750600360008462ffffff1662ffffff16815260200190815260200160002060030160009054906101000a900462ffffff1662ffffff168262ffffff16115b8015610f2357508162ffffff16600360008562ffffff1662ffffff16815260200190815260200160002060040160003373ffffffffffffffffffffffffffffffffffffffff1673ffffffffffffffffffffffffffffffffffffffff16815260200190815260200160002060009054906101000a900462ffffff1662ffffff16600160009054906101000a900473ffffffffffffffffffffffffffffffffffffffff1673ffffffffffffffffffffffffffffffffffffffff166370a08231336040518263ffffffff167c0100000000000000000000000000000000000000000000000000000000028152600401808273ffffffffffffffffffffffffffffffffffffffff1673ffffffffffffffffffffffffffffffffffffffff16815260200191505060206040518083038186803b158015610ee457600080fd5b505afa158015610ef8573d6000803e3d6000fd5b505050506040513d6020811015610f0e57600080fd5b81019080805190602001909291905050500110155b156113445760008090506000600360008662ffffff1662ffffff16815260200190815260200160002060040160003373ffffffffffffffffffffffffffffffffffffffff1673ffffffffffffffffffffffffffffffffffffffff16815260200190815260200160002060009054906101000a900462ffffff1662ffffff16111561101d57600360008562ffffff1662ffffff16815260200190815260200160002060040160003373ffffffffffffffffffffffffffffffffffffffff1673ffffffffffffffffffffffffffffffffffffffff16815260200190815260200160002060009054906101000a900462ffffff1683039050611087565b60023390806001815401808255809150509060018203906000526020600020016000909192909190916101000a81548173ffffffffffffffffffffffffffffffffffffffff021916908373ffffffffffffffffffffffffffffffffffffffff160217905550508290505b82600360008662ffffff1662ffffff16815260200190815260200160002060040160003373ffffffffffffffffffffffffffffffffffffffff1673ffffffffffffffffffffffffffffffffffffffff16815260200190815260200160002060006101000a81548162ffffff021916908362ffffff16021790555033600360008662ffffff1662ffffff16815260200190815260200160002060030160036101000a81548173ffffffffffffffffffffffffffffffffffffffff021916908373ffffffffffffffffffffffffffffffffffffffff16021790555082600360008662ffffff1662ffffff16815260200190815260200160002060030160006101000a81548162ffffff021916908362ffffff160217905550600160009054906101000a900473ffffffffffffffffffffffffffffffffffffffff1673ffffffffffffffffffffffffffffffffffffffff1663ec60bcf33333846040518463ffffffff167c0100000000000000000000000000000000000000000000000000000000028152600401808473ffffffffffffffffffffffffffffffffffffffff1673ffffffffffffffffffffffffffffffffffffffff1681526020018373ffffffffffffffffffffffffffffffffffffffff1673ffffffffffffffffffffffffffffffffffffffff1681526020018262ffffff1681526020019350505050600060405180830381600087803b15801561129b57600080fd5b505af11580156112af573d6000803e3d6000fd5b505050507f6efe4755afc5fb215182c149881b71cbd37a4dbc7742b32c330aad727fe163ea843385604051808462ffffff1662ffffff1681526020018373ffffffffffffffffffffffffffffffffffffffff1673ffffffffffffffffffffffffffffffffffffffff1681526020018262ffffff1662ffffff168152602001935050505060405180910390a16001915050611349565b600090505b92915050565b606080600080600360008662ffffff1662ffffff168152602001908152602001600020600101600360008762ffffff1662ffffff168152602001908152602001600020600201600360008862ffffff1662ffffff16815260200190815260200160002060030160009054906101000a900462ffffff16600360008962ffffff1662ffffff16815260200190815260200160002060030160179054906101000a900460ff16838054600181600116156101000203166002900480601f0160208091040260200160405190810160405280929190818152602001828054600181600116156101000203166002900480156114885780601f1061145d57610100808354040283529160200191611488565b820191906000526020600020905b81548152906001019060200180831161146b57829003601f168201915b50505050509350828054600181600116156101000203166002900480601f0160208091040260200160405190810160405280929190818152602001828054600181600116156101000203166002900480156115245780601f106114f957610100808354040283529160200191611524565b820191906000526020600020905b81548152906001019060200180831161150757829003601f168201915b5050505050925093509350935093509193509193565b6000600360008362ffffff1662ffffff16815260200190815260200160002060040160003373ffffffffffffffffffffffffffffffffffffffff1673ffffffffffffffffffffffffffffffffffffffff16815260200190815260200160002060009054906101000a900462ffffff169050919050565b60006115bb33611d66565b15156115c657600080fd5b60001515600360008662ffffff1662ffffff16815260200190815260200160002060030160189054906101000a900460ff16151514156118fb57610100604051908101604052808562ffffff168152602001848152602001838152602001600062ffffff1681526020013373ffffffffffffffffffffffffffffffffffffffff168152602001600115158152602001600115158152602001600062ffffff16815250600360008662ffffff1662ffffff16815260200190815260200160002060008201518160000160006101000a81548162ffffff021916908362ffffff16021790555060208201518160010190805190602001906116c692919061202a565b5060408201518160020190805190602001906116e392919061202a565b5060608201518160030160006101000a81548162ffffff021916908362ffffff16021790555060808201518160030160036101000a81548173ffffffffffffffffffffffffffffffffffffffff021916908373ffffffffffffffffffffffffffffffffffffffff16021790555060a08201518160030160176101000a81548160ff02191690831515021790555060c08201518160030160186101000a81548160ff02191690831515021790555060e08201518160030160196101000a81548162ffffff021916908362ffffff16021790555090505083600160146101000a81548162ffffff021916908362ffffff1602179055507f4c8ed2f5c2b4a36bf4342b8d6544300ca5ca6272f42db59e168f3320e8f6380d848484604051808462ffffff1662ffffff1681526020018060200180602001838103835285818151815260200191508051906020019080838360005b8381101561184f578082015181840152602081019050611834565b50505050905090810190601f16801561187c5780820380516001836020036101000a031916815260200191505b50838103825284818151815260200191508051906020019080838360005b838110156118b557808201518184015260208101905061189a565b50505050905090810190601f1680156118e25780820380516001836020036101000a031916815260200191505b509550505050505060405180910390a160019050611900565b600090505b9392505050565b61191033611d83565b565b6060600460008373ffffffffffffffffffffffffffffffffffffffff1673ffffffffffffffffffffffffffffffffffffffff1681526020019081526020016000208054600181600116156101000203166002900480601f0160208091040260200160405190810160405280929190818152602001828054600181600116156101000203166002900480156119e75780601f106119bc576101008083540402835291602001916119e7565b820191906000526020600020905b8154815290600101906020018083116119ca57829003601f168201915b50505050509050919050565b6119fc33611d66565b1515611a0757600080fd5b611a1081611ddd565b50565b600081600460003373ffffffffffffffffffffffffffffffffffffffff1673ffffffffffffffffffffffffffffffffffffffff1681526020019081526020016000209080519060200190611a689291906120aa565b5060006103e89050600160009054906101000a900473ffffffffffffffffffffffffffffffffffffffff1673ffffffffffffffffffffffffffffffffffffffff166340c10f1933836040518363ffffffff167c0100000000000000000000000000000000000000000000000000000000028152600401808373ffffffffffffffffffffffffffffffffffffffff1673ffffffffffffffffffffffffffffffffffffffff1681526020018262ffffff16815260200192505050602060405180830381600087803b158015611b3a57600080fd5b505af1158015611b4e573d6000803e3d6000fd5b505050506040513d6020811015611b6457600080fd5b8101908080519060200190929190505050507f346f9327810a691d8ea29288f9974948206385e779bc8a9b70671c247826a4793384600160009054906101000a900473ffffffffffffffffffffffffffffffffffffffff1673ffffffffffffffffffffffffffffffffffffffff166370a08231336040518263ffffffff167c0100000000000000000000000000000000000000000000000000000000028152600401808273ffffffffffffffffffffffffffffffffffffffff1673ffffffffffffffffffffffffffffffffffffffff16815260200191505060206040518083038186803b158015611c5457600080fd5b505afa158015611c68573d6000803e3d6000fd5b505050506040513d6020811015611c7e57600080fd5b8101908080519060200190929190505050604051808473ffffffffffffffffffffffffffffffffffffffff1673ffffffffffffffffffffffffffffffffffffffff16815260200180602001838152602001828103825284818151815260200191508051906020019080838360005b83811015611d07578082015181840152602081019050611cec565b50505050905090810190601f168015611d345780820380516001836020036101000a031916815260200191505b5094505050505060405180910390a16001915050919050565b6000600160149054906101000a900462ffffff16905090565b6000611d7c826000611e3790919063ffffffff16565b9050919050565b611d97816000611ecb90919063ffffffff16565b8073ffffffffffffffffffffffffffffffffffffffff167f0a8eb35e5ca14b3d6f28e4abf2f128dbab231a58b56e89beb5d636115001e16560405160405180910390a250565b611df1816000611f7a90919063ffffffff16565b8073ffffffffffffffffffffffffffffffffffffffff167f22380c05984257a1cb900161c713dd71d39e74820f1aea43bd3f1bdd2096129960405160405180910390a250565b60008073ffffffffffffffffffffffffffffffffffffffff168273ffffffffffffffffffffffffffffffffffffffff1614151515611e7457600080fd5b8260000160008373ffffffffffffffffffffffffffffffffffffffff1673ffffffffffffffffffffffffffffffffffffffff16815260200190815260200160002060009054906101000a900460ff16905092915050565b600073ffffffffffffffffffffffffffffffffffffffff168173ffffffffffffffffffffffffffffffffffffffff1614151515611f0757600080fd5b611f118282611e37565b1515611f1c57600080fd5b60008260000160008373ffffffffffffffffffffffffffffffffffffffff1673ffffffffffffffffffffffffffffffffffffffff16815260200190815260200160002060006101000a81548160ff0219169083151502179055505050565b600073ffffffffffffffffffffffffffffffffffffffff168173ffffffffffffffffffffffffffffffffffffffff1614151515611fb657600080fd5b611fc08282611e37565b151515611fcc57600080fd5b60018260000160008373ffffffffffffffffffffffffffffffffffffffff1673ffffffffffffffffffffffffffffffffffffffff16815260200190815260200160002060006101000a81548160ff0219169083151502179055505050565b828054600181600116156101000203166002900490600052602060002090601f016020900481019282601f1061206b57805160ff1916838001178555612099565b82800160010185558215612099579182015b8281111561209857825182559160200191906001019061207d565b5b5090506120a6919061212a565b5090565b828054600181600116156101000203166002900490600052602060002090601f016020900481019282601f106120eb57805160ff1916838001178555612119565b82800160010185558215612119579182015b828111156121185782518255916020019190600101906120fd565b5b509050612126919061212a565b5090565b61214c91905b80821115612148576000816000905550600101612130565b5090565b9056fea165627a7a7230582017042d3701f457ff79d0e90d86c0d22217c82a02b9725754c36df18e29262fe10029",
  "source": "pragma solidity 0.5.0;\r\n\r\nimport \"./FiapToken.sol\";\r\nimport \"openzeppelin-solidity/contracts/access/roles/WhitelistAdminRole.sol\";\r\n\r\n\r\ncontract CasaLeilao is WhitelistAdminRole {\r\n    address private fiapTokenAddress;\r\n\r\n    struct Leilao {\r\n        uint24 id;\r\n        string nome;\r\n        string foto;\r\n        uint24 maiorLance;\r\n        address donoMaiorLance;\r\n        bool ativo;\r\n        bool isValue;\r\n        uint24 numLances;\r\n        mapping(address => uint24) lances;\r\n    }\r\n\r\n    uint24 private leilaoAtivo = 0;\r\n    address[] private partWallets;\r\n    mapping(uint24 => Leilao) private leiloes;\r\n    mapping(address => string) private participantes;\r\n\r\n    event Lance(uint24 _id, address _donoDoLance, uint24 _lance);\r\n    event FimDeLeilao(uint24 _id, string _nome, address _ganhador, string _nomeGanhador, uint24 _lance);\r\n    event InicioDeLeilao(uint24 _id, string _nome, string _foto);\r\n    event Participante(address _carteira, string _nome, uint _saldo);\r\n\r\n    function addLeilao(uint24 _leilaoId, string memory _nome,\r\n        string memory _foto) public onlyWhitelistAdmin returns (bool _situacaoLeilao) {\r\n        if (leiloes[_leilaoId].isValue == false) {\r\n            leiloes[_leilaoId] = Leilao({\r\n                id: _leilaoId,\r\n                nome: _nome,\r\n                foto: _foto,\r\n                maiorLance: 0,\r\n                donoMaiorLance: msg.sender,\r\n                ativo: true,\r\n                isValue: true,\r\n                numLances: 0\r\n            });\r\n            leilaoAtivo = _leilaoId;\r\n            emit InicioDeLeilao(_leilaoId, _nome, _foto);\r\n            return true;\r\n        } else {\r\n            return false;\r\n        }\r\n    }\r\n\r\n    function encerrarLeilao(uint24 _leilaoId) public onlyWhitelistAdmin returns (bool _situacaoLeilao) {\r\n        if (leiloes[_leilaoId].isValue == true) {\r\n            if (leiloes[_leilaoId].ativo == true) {\r\n                leiloes[_leilaoId].ativo = false;\r\n                leilaoAtivo = 0;\r\n                for (uint i=0; i < partWallets.length; i++) {\r\n                    FiapToken(fiapTokenAddress).mint(partWallets[i], leiloes[_leilaoId].lances[partWallets[i]]);\r\n                    delete partWallets[i];\r\n                }\r\n\r\n                emit FimDeLeilao(\r\n                    _leilaoId,\r\n                    leiloes[_leilaoId].nome,\r\n                    leiloes[_leilaoId].donoMaiorLance,\r\n                    participantes[leiloes[_leilaoId].donoMaiorLance],\r\n                    leiloes[_leilaoId].maiorLance\r\n                );\r\n                return true;\r\n            } else {\r\n                return false;\r\n            }\r\n        } else {\r\n            return false;\r\n        }\r\n    }\r\n\r\n    function addParticipante(string memory _nome) public returns (bool _situacao) {\r\n        participantes[msg.sender] = _nome;\r\n        uint24 saldo = 1000;\r\n        FiapToken(fiapTokenAddress).mint(msg.sender, saldo);\r\n\r\n        emit Participante(msg.sender, _nome, FiapToken(fiapTokenAddress).balanceOf(msg.sender));\r\n        return true;\r\n    }\r\n\r\n    function darLance(uint24 _leilaoId, uint24 _valorLance) public returns (bool _situacaoLance) {\r\n        if (\r\n        leiloes[_leilaoId].ativo == true &&\r\n        _valorLance > leiloes[_leilaoId].maiorLance &&\r\n        (FiapToken(fiapTokenAddress).balanceOf(msg.sender) + leiloes[_leilaoId].lances[msg.sender]) >= _valorLance) {\r\n\r\n            uint24 destruir = 0;\r\n            if (leiloes[_leilaoId].lances[msg.sender] > 0) {\r\n                destruir = _valorLance - leiloes[_leilaoId].lances[msg.sender];\r\n            } else {\r\n                partWallets.push(msg.sender);\r\n                destruir = _valorLance;\r\n            }\r\n            leiloes[_leilaoId].lances[msg.sender] = _valorLance;\r\n            leiloes[_leilaoId].donoMaiorLance = msg.sender;\r\n            leiloes[_leilaoId].maiorLance = _valorLance;\r\n            FiapToken(fiapTokenAddress).burnFrom(msg.sender, msg.sender, destruir);\r\n\r\n            emit Lance(_leilaoId, msg.sender, _valorLance);\r\n            return true;\r\n        } else {\r\n            return false;\r\n        }\r\n    }\r\n\r\n    function getParticipante(address _address) public view returns (string memory _nome) {\r\n        return (participantes[_address]);\r\n    }\r\n\r\n    function getSeuUltimoLance(uint24 _leilaoId) public view\r\n    returns (uint24 _ultimoLance) {\r\n        return leiloes[_leilaoId].lances[msg.sender];\r\n    }\r\n\r\n    function getLeilao(uint24 _leilaoId) public view\r\n    returns (string memory _nome, string memory _foto,\r\n        uint24 _maiorLance, bool _ativo) {\r\n        return (leiloes[_leilaoId].nome, leiloes[_leilaoId].foto,\r\n        leiloes[_leilaoId].maiorLance, leiloes[_leilaoId].ativo);\r\n    }\r\n\r\n    function getLeilaoAtivo() public view returns (uint24) {\r\n        return leilaoAtivo;\r\n    }\r\n\r\n    constructor(\r\n    address _fiapTokenAddress) public {\r\n    fiapTokenAddress = _fiapTokenAddress;\r\n}\r\n}\r\n",
  "sourcePath": "C:/Users/hpoya/Documents/SmartContractProjects/fiap-gamification/contracts/CasaLeilao.sol",
  "compiler": {
    "name": "solc",
    "version": "0.5.0+commit.1d4f565a.Emscripten.clang"
  },
  "schemaVersion": "3.0.1",
  "updatedAt": "2019-03-06T21:02:57.271Z",
  "devdoc": {
    "methods": {}
  },
  "userdoc": {
    "methods": {}
  }
}